:100000000C9446000C9465000C9465000C946500FB
:100010000C9465000C9465000C9465000C946500CC
:100020000C9465000C9465000C9465000C946500BC
:100030000C9467000C9465000C9465000C946500AA
:100040000C9465000C9465000C9465000C9465009C
:100050000C9465000C9465000C9465000C9465008C
:100060000C9465000C9465000C9465000C9465007C
:100070000C9465000C9465000C9465000C9465006C
:100080000C9465000C9465000C94650011241FBE4F
:10009000CFEFD0E1DEBFCDBF12E0A0E0B1E0E4E3FE
:1000A000F5E100E00BBF02C007900D92A833B10745
:1000B000D9F712E0A8E3B2E001C01D92AF39B10751
:1000C000E1F70E94CF010C94980A0C9400007894F8
:1000D0001F920F920FB60F9211246F937F938F93FD
:1000E0009F93809138028F5F80933802809138020D
:1000F00065E00E94F109992349F4809140028260F1
:100100008093400288B390E2892788BB88B390E14E
:10011000892788BB8091400284608093400280914F
:1001200038028C3349F09F918F917F916F910F909E
:100130000FBE0F901F9018951092380280919D026B
:100140008F5F80939D0280919D028C3361F71092A6
:100150009D0280919E028F5F80939E0280919E02FD
:10016000883109F710929E02809139028F5F809347
:100170003902D9CF1FBC8CE08EBD84E294EF9BBDC9
:100180008ABD87B7806187BF0895FC0180913902DD
:100190006AE00E94F109805D8083809139020E94AB
:1001A000F109905D91832AE3228380919E020E944F
:1001B000F109805D838380919E020E94F109905D28
:1001C0009483258380919D020E94F109805D86833E
:1001D00080919D020E94F109905D97832087809114
:1001E00038020E94F109805D8187809138020E9467
:1001F000F109905D928713860895282FFB0164E62C
:100200000E94F109805D8083822F0E94F109292FCD
:10021000892F6AE00E94F109805D8183822F0E940C
:10022000F109905D92830895FF920F931F93CF93EE
:10023000DF93EC01F62E8A01BC0180E090E020EA19
:1002400036E841E050E00E94240ADC01CB0160E185
:1002500077E20E94FD09662319F4FF2009F476C0B5
:10026000605DD8016C9331E0CE0160E177E20E94DD
:10027000FD0968EE73E00E94FD09262FCE0168EEAD
:1002800073E00E94FD09482FE92F222319F433233C
:1002900009F457C0205DD80111962C9331E0842FCA
:1002A0009E2F64E670E00E94FD09262F842F9E2F6A
:1002B00064E670E00E94FD09482FE92F222311F423
:1002C0003323D1F1205DD80112962C9331E0842F95
:1002D0009E2F6AE070E00E94FD09662311F433232B
:1002E00031F1605DD80113966C9331E0842F9E2F1D
:1002F0006AE070E00E94FD09882371F4332361F401
:1003000080E2D80114968C93F8011582DF91CF9189
:100310001F910F91FF900895805DF8018483F8018B
:100320001582DF91CF911F910F91FF90089580E288
:10033000D80113968C93DACF80E2D80112968C9371
:10034000C6CF80E2D80111968C93A9CF80E2F80144
:10035000808330E089CFEF92FF920F931F937C014F
:100360000DE412E0C8010E94C5008CE2809358029F
:10037000A801445F5F4FC70161E00E9414018AE059
:1003800080935E028DE080935F0210926002C8014C
:100390000E94C3031F910F91FF90EF900895CF9299
:1003A000DF92EF92FF920F931F93CF93DF93109200
:1003B0004002E1E6F2E0119282E0ED39F807D9F768
:1003C0008FEF8BBB8ABB18BA87EF87BB12BA11BA03
:1003D00011E012B91092620088E080936100C79A20
:1003E0001FBC8CE08EBD84E294EF9BBD8ABD87B7B5
:1003F000806187BF87E690E00E94B60380E58DB9F3
:100400001EB987E690E00E94B6030E9467030E942F
:100410001A030E94200380E091E00E944203789436
:1004200000E020E0C0E0D0E0FF2480E041E0C42E06
:10043000D12C3CC0C69A222319F0EE2009F479C0D1
:100440008091400282FD04C08091400281FF2CC057
:10045000809140028B7F809340028091400281FF17
:100460000DC0809140028D7F80934002802F90E0EC
:10047000019663E070E00E94110A082F013009F430
:1004800047C00130A0F58F2D90E061E04AE352E0D3
:100490000E9414010E9426038DE191E00E94420314
:1004A0008AE392E00E9442032E2D812F10919D023B
:1004B000181749F0E0919D02F0E0EF59FD4F80815F
:1004C000F81A10919D0281B190E00024880F991FC5
:1004D000001C880F991F001C892F902D8C259D25AD
:1004E000EE24E394E82280FDA5CFC698A4CF023085
:1004F000D9F681E492E00E94C5000E94260389E2B9
:1005000091E00E94420381E492E00E944203CCCF3A
:10051000CE0161E04AE352E00E9414010E942603EA
:1005200081E191E00E9442038AE392E00E9442034B
:10053000BBCF2196F394E12FF0E0EF59FD4F80817E
:100540008F5F808380914002846080934002CE015F
:100550000E94AB0175CFE2E6F0E080818860808385
:100560008081877F80830895AF92BF92CF92DF9280
:10057000EF92FF920F931F93811181E08FB9779BC8
:10058000FECF6FB9779BFECF809162008860809329
:10059000620080916200877F809362004423B1F102
:1005A000642F70E080E090E00E9483075B016C01A3
:1005B00020E030E04AE755E40E94A5057B018C016C
:1005C00020E030E040E85FE30E94FF0688237CF1F2
:1005D000C801B70120E03FEF4FE757E40E949F06B4
:1005E0001816ECF4C601B50120E030E040E251E419
:1005F0000E94A5050E94CF03CB01672B39F020E9AB
:1006000031E0F9013197F1F70197D9F71F910F9177
:10061000FF90EF90DF90CF90BF90AF900895C8010A
:10062000B7010E94CF03CB010197F1F7EFCF61E053
:1006300070E0F9CF80E061E042E00E94B4020895EA
:1006400080E062E041E00E94B402089580E060EC46
:1006500041E00E94B4020895CF93DF93C0E0D0E060
:1006600081E060E241E00E94B4022196C031D105F0
:10067000B9F7DF91CF910895682F81E041E00E94A2
:10068000B40208951F93CF93DF93EC016881662332
:1006900061F010E081E041E00E94B4021F5FFE01C2
:1006A000E10FF11D60816623A9F7DF91CF911F91C2
:1006B0000895882331F480E06CE041E00E94B402A8
:1006C000089580E06EE041E00E94B4020895E2E601
:1006D000F0E08081877F8083E1E6F0E080818860C0
:1006E000808380E69AEE0197F1F780E060E347E0CF
:1006F0000E94B40280E060E347E00E94B40280E020
:1007000060E347E00E94B40280E068E345E00E94B5
:10071000B40280E068E045E00E94B40280E061E05D
:1007200045E00E94B40280E066E045E00E94B40229
:1007300080E06CE045E00E94B4020895682F81E0FB
:1007400040E00E94B402089580E061E040E00E9431
:10075000B402089580E062E040E00E94B40208958F
:1007600080E060EC40E00E94B40208959093900015
:1007700089B988E18AB986E08093950008955D9BE8
:10078000FECF8CB90895FC018081882339F05D9BF0
:10079000FECF8CB9319680818823C9F70895EF92F6
:1007A000FF920F931F937B018C0120E030E040E02B
:1007B0005FE40E94CF0688238CF0C801B70120E0D7
:1007C00030E040E05FE40E9447050E942F079B0154
:1007D000AC01205030404040504806C0C801B7012D
:1007E0000E942F079B01AC01B901CA011F910F9113
:1007F000FF90EF900895A0E0B0E0E1E0F4E00C9409
:10080000610ADC012B01FA019C91923008F439C194
:10081000EB018881823008F433C1943069F484306C
:1008200009F02FC111969C9111978981981709F4AD
:1008300028C1AFE2B1E025C1843009F421C1823082
:10084000A9F4923009F01DC19A01AD0188E0EA01D6
:100850000990AE01E90109929E018150C1F7E201C0
:10086000898111969C918923818308C1923009F472
:1008700007C112962D903C901397EB018A819B81C2
:100880001496AD90BD90CD90DC901797EC80FD80D4
:100890000E811F819101281B390BB90137FF04C05C
:1008A00066277727621B730B603271050CF061C0FD
:1008B000121613066CF537014801062E04C09694F3
:1008C0008794779467940A94D2F721E030E040E06F
:1008D00050E004C0220F331F441F551F6A95D2F702
:1008E00021503040404050402E213F214023512391
:1008F000211531054105510521F021E030E040E0AE
:1009000050E079018A01E628F728082919293CC016
:10091000232BD1F1260E371E35014601062E04C0C9
:1009200096948794779467940A94D2F721E030E004
:1009300040E050E004C0220F331F441F551F6A954A
:10094000D2F721503040404050402A213B214C21D9
:100950005D21211531054105510521F021E030E0EF
:1009600040E050E059016A01A628B728C828D928D4
:100970000BC0821593052CF01C01AA24BB24650131
:1009800003C0EE24FF24870111969C91D201119699
:100990008C91981709F445C0992339F0A801970163
:1009A0002A193B094C095D0906C0A60195012E19BB
:1009B0003F09400B510B57FD08C011823382228240
:1009C00024833583468357831DC081E0818333822E
:1009D000228288279927DC01821B930BA40BB50B7D
:1009E00084839583A683B7830DC0220F331F441FD2
:1009F000551F2483358346835783828193810197D2
:100A0000938382832481358146815781DA01C9012C
:100A10000197A109B1098F5F9F4FAF4FBF4328F3E3
:100A20000BC0918333822282EA0CFB1C0C1D1D1D1E
:100A3000E482F5820683178383E0808324813581F5
:100A40004681578157FF1AC0C901AA2797FDA09573
:100A5000BA2F81709070A070B070569547953795F9
:100A60002795822B932BA42BB52B84839583A68368
:100A7000B78382819381019693838283DF0101C0D2
:100A8000D201CD01CDB7DEB7E2E10C947D0AA0E240
:100A9000B0E0EDE4F5E00C946D0A69837A838B8312
:100AA0009C832D833E834F835887E9E0EE2EF12C03
:100AB000EC0EFD1ECE010196B7010E9420098E01A9
:100AC0000F5E1F4FCE010596B8010E9420098A894A
:100AD00091E089278A8BC701B801AE01475E5F4F5D
:100AE0000E94FB030E944B08A096E6E00C94890A42
:100AF000A0E2B0E0EEE7F5E00C946D0A69837A833A
:100B00008B839C832D833E834F835887F9E0EF2EA0
:100B1000F12CEC0EFD1ECE010196B7010E942009BA
:100B20008E010F5E1F4FCE010596B8010E9420096D
:100B3000C701B801AE01475E5F4F0E94FB030E94F0
:100B40004B08A096E6E00C94890AA0E2B0E0EBEA3C
:100B5000F5E00C94610A69837A838B839C832D83EF
:100B60003E834F835887CE010196BE01675F7F4F5A
:100B70000E942009CE010596BE016F5E7F4F0E9444
:100B800020099985923088F089898230C8F09430A4
:100B900019F4823051F404C0843029F4923081F485
:100BA0008FE291E0C6C0923049F420E09A858A89AC
:100BB000981321E02A87CE010996BBC0823049F400
:100BC00020E09A858A89981321E02A8BCE014196EC
:100BD000B0C02D843E844F8458886D887E888F886D
:100BE000988CEE24FF248701AA24BB24650140E0F1
:100BF00050E060E070E0E0E0F0E0C10181709070F2
:100C0000892BE9F0E60CF71C081D191D9A01AB01B0
:100C10002A0D3B1D4C1D5D1D80E090E0A0E0B0E082
:100C2000E614F7040805190520F481E090E0A0E03F
:100C3000B0E0BA01A901480F591F6A1F7B1FAA0C17
:100C4000BB1CCC1CDD1C97FE08C081E090E0A0E03E
:100C5000B0E0A82AB92ACA2ADB2A3196E032F10587
:100C600049F0660C771C881C991C5694479437945D
:100C70002794C3CFFA85EA892B893C898B859C858B
:100C8000280F391F2E5F3F4F17C0CA018170907027
:100C9000892B61F016950795F794E79480E090E032
:100CA000A0E0B0E8E82AF92A0A2B1B2B7695679575
:100CB000579547952F5F3F4F77FDE7CF0CC0440F07
:100CC000551F661F771F17FD4160EE0CFF1C001FAC
:100CD000111F21503040403090E0590790E06907E3
:100CE00090E4790760F32B8F3C8FDB01CA018F778B
:100CF0009070A070B07080349105A105B10561F4C9
:100D000047FD0AC0E114F1040105110529F0405C1A
:100D10005F4F6F4F7F4F40781A8EFE1711F081E0C2
:100D20008A8F4D8F5E8F6F8F78A383E0898FCE017E
:100D300049960E944B08A096E2E10C947D0AA8E136
:100D4000B0E0E5EAF6E00C946D0A69837A838B8360
:100D50009C832D833E834F83588789E0E82EF12CB6
:100D6000EC0EFD1ECE010196B7010E9420098E01F6
:100D70000F5E1F4FCE010596B8010E94200989859C
:100D8000823040F08989823028F0C701B8010E9482
:100D9000980901C08FEF6896E6E00C94890AA8E1F3
:100DA000B0E0E5EDF6E00C946D0A69837A838B83FD
:100DB0009C832D833E834F83588789E0E82EF12C56
:100DC000EC0EFD1ECE010196B7010E9420098E0196
:100DD0000F5E1F4FCE010596B8010E94200989853C
:100DE000823040F08989823028F0C701B8010E9422
:100DF000980901C08FEF6896E6E00C94890AA8E193
:100E0000B0E0E5E0F7E00C946D0A69837A838B83A8
:100E10009C832D833E834F83588789E0E82EF12CF5
:100E2000EC0EFD1ECE010196B7010E9420098E0135
:100E30000F5E1F4FCE010596B8010E9420098985DB
:100E4000823040F08989823028F0C701B8010E94C1
:100E5000980901C081E06896E6E00C94890AACE04C
:100E6000B0E0E5E3F7E00C94710A69837A838B8341
:100E70009C83CE010196BE016B5F7F4F0E942009CB
:100E80008D81823061F1823050F1843021F48E8185
:100E9000882351F12EC02F81388537FD20C06E8107
:100EA0002F3131051CF06623F9F023C08EE190E06C
:100EB000821B930B29853A854B855C8504C056952A
:100EC0004795379527958A95D2F76623B1F05095C7
:100ED0004095309521953F4F4F4F5F4F0EC020E01A
:100EE00030E040E050E009C02FEF3FEF4FEF5FE709
:100EF00004C020E030E040E050E8B901CA012C967F
:100F0000E2E00C948D0AA8E0B0E0E9E8F7E00C9488
:100F1000690A7B018C01611571058105910519F440
:100F200082E0898360C083E089838EE1C82ED12C62
:100F3000DC82CB82ED82FE820F831887C801B70165
:100F40000E94FC07FC013197F7FF3BC022273327A3
:100F50002E1B3F0B57016801022E04C0D694C79484
:100F6000B794A7940A94D2F740E050E060E070E0B4
:100F700081E090E0A0E0B0E004C0880F991FAA1FB4
:100F8000BB1F2A95D2F70197A109B1098E219F2194
:100F9000A023B1230097A105B10521F041E050E065
:100FA00060E070E04A295B296C297D294D835E83CE
:100FB0006F8378878EE190E08E1B9F0B9C838B83E1
:100FC00012C0309781F00E2E04C0EE0CFF1C001FE3
:100FD000111F0A94D2F7ED82FE820F831887CE1A72
:100FE000DF0ADC82CB821A82CE0101960E944B0876
:100FF0002896EAE00C94850AEF92FF920F931F93D4
:101000007B018C0180E0E81680E0F80681E00807AB
:1010100080E0180788F48FEFE816F1040105110548
:1010200031F028F088E090E0A0E0B0E017C080E068
:1010300090E0A0E0B0E012C080E0E81680E0F806A2
:1010400080E0080781E0180728F088E190E0A0E040
:10105000B0E004C080E190E0A0E0B0E020E230E049
:1010600040E050E0281B390B4A0B5B0B04C016957F
:101070000795F794E7948A95D2F7F701E95CFE4F5C
:101080008081281B310941095109C9011F910F9124
:10109000FF90EF900895DF92EF92FF920F931F93CE
:1010A000FC01E480F58006811781D1808081823047
:1010B00048F480E090E0A0E1B0E0E82AF92A0A2BA9
:1010C0001B2BA5C0843009F49FC0823021F4EE248C
:1010D000FF24870105C0E114F1040105110519F48D
:1010E000E0E0F0E096C0628173819FEF623879079B
:1010F0000CF05BC022E83FEF261B370B2A3131058D
:101100002CF020E030E040E050E02AC0B801A70118
:10111000022E04C076956795579547950A94D2F7A5
:1011200081E090E0A0E0B0E004C0880F991FAA1F02
:10113000BB1F2A95D2F70197A109B1098E219F21E2
:10114000A023B1230097A105B10521F081E090E033
:10115000A0E0B0E09A01AB01282B392B4A2B5B2B86
:10116000DA01C9018F779070A070B070803491055A
:10117000A105B10539F427FF09C0205C3F4F4F4F4F
:101180005F4F04C0215C3F4F4F4F5F4FE0E0F0E006
:101190002030A0E03A07A0E04A07A0E45A0710F088
:1011A000E1E0F0E079018A0127C06038710564F55B
:1011B000FB01E158FF4FD801C7018F779070A070F5
:1011C000B07080349105A105B10539F4E7FE0DC07A
:1011D00080E490E0A0E0B0E004C08FE390E0A0E005
:1011E000B0E0E80EF91E0A1F1B1F17FF05C0169579
:1011F0000795F794E794319687E016950795F7944D
:10120000E7948A95D1F705C0EE24FF248701EFEF1C
:10121000F0E06E2F679566276795902F9F77D7949C
:10122000DD24D7948E2F8695492F462B582F5D2984
:10123000B701CA011F910F91FF90EF90DF900895C1
:10124000FC01DB01408151812281622F6F7770E0C8
:10125000221F2227221F9381892F880F822B282F5C
:1012600030E0991F9927991F11969C93119721158A
:101270003105A9F5411551056105710511F482E0AB
:1012800037C082E89FEF13969C938E9312979A0132
:10129000AB0167E0220F331F441F551F6A95D1F73A
:1012A00083E08C930DC0220F331F441F551F1296ED
:1012B0008D919C911397019713969C938E931297FF
:1012C000203080E0380780E0480780E4580758F372
:1012D00014962D933D934D935C93179708952F3F4C
:1012E000310579F4411551056105710519F484E062
:1012F0008C93089564FF03C081E08C9312C01C920C
:1013000010C02F57304013963C932E93129783E0D2
:101310008C9387E0440F551F661F771F8A95D1F77E
:10132000706414964D935D936D937C931797089515
:101330001F93DC01FB019C91923008F447C080812F
:10134000823008F443C0943051F411961C918430DB
:1013500099F58181682F70E0611B71093FC084306D
:1013600021F0923031F48230B9F18181882389F102
:101370002DC011961C9111978230F1F081811817C0
:10138000D9F412962D913C91139782819381821703
:10139000930794F028173907BCF014968D919D910E
:1013A0000D90BC91A02D248135814681578128174D
:1013B00039074A075B0718F4112341F00AC0821766
:1013C0009307A407B50740F4112319F061E070E01A
:1013D00005C06FEF7FEF02C060E070E0CB011F91AE
:1013E0000895991B79E004C0991F961708F0961B81
:1013F000881F7A95C9F780950895AA1BBB1B51E1F8
:1014000007C0AA1FBB1FA617B70710F0A61BB70B74
:10141000881F991F5A95A9F780959095BC01CD0119
:10142000089597FB092E07260AD077FD04D0E5DF43
:1014300006D000201AF4709561957F4F0895F6F755
:10144000909581959F4F089597FB092E05260ED004
:1014500057FD04D014D00AD0001C38F450954095A4
:10146000309521953F4F4F4F5F4F0895F6F7909578
:101470008095709561957F4F8F4F9F4F0895A1E2A2
:101480001A2EAA1BBB1BFD010DC0AA1FBB1FEE1FFE
:10149000FF1FA217B307E407F50720F0A21BB30B49
:1014A000E40BF50B661F771F881F991F1A9469F7C5
:1014B00060957095809590959B01AC01BD01CF0121
:1014C00008952F923F924F925F926F927F928F92E8
:1014D0009F92AF92BF92CF92DF92EF92FF920F93C3
:1014E0001F93CF93DF93CDB7DEB7CA1BDB0B0FB6CD
:1014F000F894DEBF0FBECDBF09942A88398848888A
:101500005F846E847D848C849B84AA84B984C8841F
:10151000DF80EE80FD800C811B81AA81B981CE0F16
:10152000D11D0FB6F894DEBF0FBECDBFED010895FB
:04153000F894FFCF5D
:1015340020202020427562626C65732120202020C7
:1015440000546F74616C3A202020202000486F758D
:10155400726C793A202020200054696D65200000C7
:101564000000000000000000010202030303030462
:10157400040404040404040505050505050505051E
:1015840005050505050505060606060606060606FE
:1015940006060606060606060606060606060606E7
:1015A40006060606060606070707070707070707CE
:1015B40007070707070707070707070707070707B7
:1015C40007070707070707070707070707070707A7
:1015D4000707070707070707070707070707070797
:1015E400070707070707070808080808080808087E
:1015F4000808080808080808080808080808080867
:101604000808080808080808080808080808080856
:101614000808080808080808080808080808080846
:101624000808080808080808080808080808080836
:101634000808080808080808080808080808080826
:101644000808080808080808080808080808080816
:101654000808080808080808080808080808080806
:08166400080808080808080046
:00000001FF
